:060000000A128A11DE2E37
:100DBC0083010A128A11162FF000831203130710F5
:100DCC0087100715700888000A128A1104270A1266
:100DDC008A118312031307110800F0008312031306
:100DEC00071487100715700888000A128A11042747
:100DFC000A128A11831203130711080083120313BA
:100E0C009010901610160B308F00BC308E00101402
:100E1C000F2F0C1C122F132F0F2F0C101014080057
:100E2C00831603138801071087100711831203130D
:100E3C0088010F300A128A11E2260A128A11383000
:100E4C000A128A11E2260A128A1180300A128A11B9
:100E5C00E2260A128A1120300A128A11F3260A128B
:100E6C008A1173300A128A11F3260A128A1163301E
:100E7C000A128A11F3260A128A1168300A128A1190
:100E8C00F3260A128A116F300A128A11F3260A12FB
:100E9C008A116F300A128A11F3260A128A116C30E9
:100EAC000A128A11F3260A128A1120300A128A11A8
:100EBC00F3260A128A116F300A128A11F3260A12CB
:100ECC008A1166300A128A11F3260A128A1120300E
:100EDC000A128A11F3260A128A116C300A128A112C
:100EEC00F3260A128A1169300A128A11F3260A12A1
:100EFC008A116E300A128A11F3260A128A11753081
:100F0C000A128A11F3260A128A1178300A128A11EF
:100F1C00F3260A128A1120300A128A11F3260A12B9
:100F2C008A11C0300A128A11E2260A128A11203064
:100F3C000A128A11F3260A128A1120300A128A1117
:100F4C00F3260A128A1120300A128A11F3260A1289
:100F5C008A1144300A128A11F3260A128A11683057
:100F6C000A128A11F3260A128A1161300A128A11A6
:100F7C00F3260A128A1172300A128A11F3260A1207
:100F8C008A116D300A128A11F3260A128A11613005
:100F9C000A128A11F3260A128A1170300A128A1167
:100FAC00F3260A128A1175300A128A11F3260A12D4
:100FBC008A1172300A128A11F3260A128A116930C8
:100FCC000A128A11F3260A128A1120300A128A1187
:100FDC00F3260A128A1120300A128A11F3260A12F9
:100FEC008A1120300A128A11F3260A128A110A1267
:040FFC008A1100282E
:00000001FF
