:060000000A128A11DB2E3A
:100D94007E088A007F088200CA260A128A1180000F
:100DA400840A04087D0603190034FF0A0319FE0AA5
:100DB400CE2E83134E30FD000630FE00ED30FF00D2
:100DC4003A3084000A128A11CE260A128A1183014B
:100DD4000A128A11012FC0340034F9340034A434C7
:100DE4000034B03400349934003492340034823402
:100DF4000034F834003480340034903400348316E2
:100E04000313860188010714203084003A30F0006F
:100E14000408F1001430F200700884008313000801
:100E2400F300F00A7108840073088000F10AF20BE1
:100E34000E2F1C2F8312031308148814B601B70154
:100E44003708803AFF0080307F02031D2B2F0A30C1
:100E54003602031C2E2F2F2F312F1C2F1C2F8312F1
:100E64000313B801B9013908803AFF0080307F02CA
:100E7400031D3E2F0A303802031C412F422F442FFA
:100E8400E52FE52F83120313B401B5013508803A29
:100E9400FF0080307F02031D512F32303402031CC7
:100EA400542F552F572FCF2FCF2F831203130718EB
:100EB4005C2F5D2F902F08141430F1007930F0006E
:100EC400F00B622FF10B622F672F8312031388102C
:100ED4003608F0007007203E840083130008860063
:100EE40088141430F1007930F000F00B772FF10BF7
:100EF400772F7C2F8312031308103808F000700733
:100F0400203E8400831300088600071C8A2F8B2F41
:100F14005D2FBB2FBB2F5D2F5D2FBB2F081414300B
:100F2400F1007930F000F00B952FF10B952F9A2FEB
:100F34008312031388103608F0007007203E8400E3
:100F440083130008860088141430F1007930F0000F
:100F5400F00BAA2FF10BAA2FAF2F83120313081043
:100F64003808F0007007203E8400831300088600D0
:100F7400BB2F0130B4070318B50A0030B507350894
:100F8400803AFF0080307F02031DCA2F32303402C2
:100F9400031CCD2FCE2F572FCF2F013083120313D5
:100FA400B8070318B90A0030B9073908803AFF00B6
:100FB40080307F02031DE02F0A303802031CE32F28
:100FC400E42F442FE52F013083120313B6070318CF
:100FD400B70A0030B7073708803AFF0080307F0235
:100FE400031DF62F0A303602031CF92FFA2F312F76
:0C0FF4001C2F1C2F1C2F0A128A11002831
:02400E007A1F17
:00000001FF
