:060000000A128A11492FCB
:100E920083010A128A114D2F831603138801512FE1
:100EA200C0308312031388000D30F200A330F1002A
:100EB200BD30F000F00B5B2FF10B5B2FF20B5B2FC1
:100EC2006400F9308312031388000D30F200A3305E
:100ED200F100BD30F000F00B6C2FF10B6C2FF20B18
:100EE2006C2F6400A4308312031388000D30F200CB
:100EF200A330F100BD30F000F00B7D2FF10B7D2F00
:100F0200F20B7D2F6400B0308312031388000D3082
:100F1200F200A330F100BD30F000F00B8E2FF10B88
:100F22008E2FF20B8E2F64009930831203138800E8
:100F32000D30F200A330F100BD30F000F00B9F2F16
:100F4200F10B9F2FF20B9F2F640092308312031339
:100F520088000D30F200A330F100BD30F000F00B3C
:100F6200B02FF10BB02FF20BB02F6400823083123E
:100F7200031388000D30F200A330F100BD30F00001
:100F8200F00BC12FF10BC12FF20BC12F6400F8300F
:100F92008312031388000D30F200A330F100BD303C
:100FA200F000F00BD22FF10BD22FF20BD22F6400F4
:100FB20080308312031388000D30F200A330F10059
:100FC200BD30F000F00BE32FF10BE32FF20BE32F18
:100FD200640090308312031388000D30F200A330B6
:100FE200F100BD30F000F00BF42FF10BF42FF20BF7
:0E0FF200F42F6400512F512F0A128A1100288B
:02400E007A1F17
:00000001FF
