:060000000A128A11E32E32
:100DC60083010A128A11E72E831603138801EB2E7C
:100DD6003F308312031388000D30F200A330F10078
:100DE600BD30F000F00BF52EF10BF52EF20BF52EC3
:100DF600640006308312031388000D30F200A3301E
:100E0600F100BD30F000F00B062FF10B062FF20BB0
:100E1600062F64005B308312031388000D30F20046
:100E2600A330F100BD30F000F00B172FF10B172F98
:100E3600F20B172F64004F308312031388000D3016
:100E4600F200A330F100BD30F000F00B282FF10BBB
:100E5600282FF20B282F64006630831203138800B4
:100E66000D30F200A330F100BD30F000F00B392F49
:100E7600F10B392FF20B392F64006D3083120313F7
:100E860088000D30F200A330F100BD30F000F00B09
:100E96004A2FF10B4A2FF20B4A2F64007D30831242
:100EA600031388000D30F200A330F100BD30F000CE
:100EB600F00B5B2FF10B5B2FF20B5B2F64000730FF
:100EC6008312031388000D30F200A330F100BD3009
:100ED600F000F00B6C2FF10B6C2FF20B6C2F6400F3
:100EE6007F308312031388000D30F200A330F10027
:100EF600BD30F000F00B7D2FF10B7D2FF20B7D2F17
:100F060064006F308312031388000D30F200A330A3
:100F1600F100BD30F000F00B8E2FF10B8E2FF20B8F
:100F26008E2F640077308312031388000D30F20091
:100F3600A330F100BD30F000F00B9F2FF10B9F2F77
:100F4600F20B9F2F64007F308312031388000D304D
:100F5600F200A330F100BD30F000F00BB02FF10B22
:100F6600B02FF20BB02F64003930831203138800C0
:100F76000D30F200A330F100BD30F000F00BC12FB0
:100F8600F10BC12FF20BC12F64003F308312031304
:100F960088000D30F200A330F100BD30F000F00BF8
:100FA600D22FF10BD22FF20BD22F6400793083129D
:100FB600031388000D30F200A330F100BD30F000BD
:100FC600F00BE32FF10BE32FF20BE32F64007130EC
:100FD6008312031388000D30F200A330F100BD30F8
:100FE600F000F00BF42FF10BF42FF20BF42F64004A
:0A0FF600EB2EEB2E0A128A110028E0
:02400E007A1F17
:00000001FF
