:060000000A128A11CB2D4B
:100B74007E088A007F088200BA250A128A11800042
:100B8400840A04087D0603190034FF0A0319FE0AC7
:100B9400BE2D83135230FD000530FE00DD30FF0012
:100BA4003E3084000A128A11BE250A128A1183017A
:100BB4000A128A11F12D3F340034063400345B34B8
:100BC40000344F340034663400346D3400347D34E2
:100BD4000034073400347F3400346F340034831617
:100BE4000313860188010710203084003E30F00092
:100BF4000408F1001430F200700884008313000824
:100C0400F300F00A7108840073088000F10AF20B03
:100C1400FE2D0C2E8312031308148814081588154E
:100C2400B601B7013708803AFF0080307F02031D08
:100C34001D2E06303602031C202E212E232E0C2EB0
:100C44000C2E83120313B801B9013908803AFF004E
:100C540080307F02031D302E0A303802031C332EED
:100C6400342E362EE52FE52F83120313BA01BB0170
:100C74003B08803AFF0080307F02031D432E06307C
:100C84003A02031C462E472E492ECF2FCF2F831214
:100C94000313BC01BD013D08803AFF0080307F0290
:100CA400031D562E0A303C02031C592E5A2E5C2E6C
:100CB400B92FB92F83120313B401B5013508803A53
:100CC400FF0080307F02031D692E96303402031C1E
:100CD4006C2E6D2E6F2EA32FA32F83120313071CCC
:100CE400742E752E0A2F08141430F1007930F00098
:100CF400F00B7A2EF10B7A2E7F2E831203138810B9
:100D0400081188113608F0007007203E8400831310
:100D1400000886001430F1007930F000F00B902EBA
:100D2400F10B902E952E8312031386018814143030
:100D3400F1007930F000F00B9D2EF10B9D2EA22EC8
:100D4400831203130810081188113808F000700783
:100D5400203E84008313000886001430F1007930AB
:100D6400F000F00BB32EF10BB32EB82E8312031345
:100D7400860108151430F1007930F000F00BC02E14
:100D8400F10BC02EC52E831203130810881088118E
:100D94003A08F0007007203E8400831300088600A0
:100DA4001430F1007930F000F00BD62EF10BD62E72
:100DB400DB2E83120313860188151430F100793079
:100DC400F000F00BE32EF10BE32EE82E8312031355
:100DD4000810081188103C08F0007007203E8400B9
:100DE4008313000886001430F1007930F000F00B12
:100DF400F92EF10BF92EFE2E831203138601071828
:100E0400042F052F752E8F2F8F2F752E752E8F2F54
:100E140008140730F1007D30F000F00B0F2FF10BB8
:100E24000F2F831203138810081188113608F0005D
:100E34007007203E84008313000886000730F10009
:100E44007D30F000F00B242FF10B242F83120313B9
:100E5400860188140730F1007D30F000F00B302F4C
:100E6400F10B302F8312031308100811881138086E
:100E7400F0007007203E84008313000886000730CA
:100E8400F1007D30F000F00B452FF10B452F83125C
:100E94000313860108150730F1007D30F000F00BD4
:100EA400512FF10B512F831203138810081088114E
:100EB4003A08F0007007203E84008313000886007F
:100EC4000730F1007D30F000F00B662FF10B662F38
:100ED40083120313860188150730F1007D30F0007A
:100EE400F00B722FF10B722F831203138810081169
:100EF40008103C08F0007007203E840083130008AB
:100F040086000730F1007D30F000F00B872FF10BE5
:100F1400872F8312031386018F2F0130B407031820
:100F2400B50A0030B5073508803AFF0080307F02EB
:100F3400031D9E2F96303402031CA12FA22F6F2E67
:100F4400A32F013083120313BC070318BD0A00301A
:100F5400BD073D08803AFF0080307F02031DB42F97
:100F64000A303C02031CB72FB82F5C2EB92F013076
:100F740083120313BA070318BB0A0030BB073B08EC
:100F8400803AFF0080307F02031DCA2F06303A02E8
:100F9400031CCD2FCE2F492ECF2F013083120313E4
:100FA400B8070318B90A0030B9073908803AFF00B6
:100FB40080307F02031DE02F0A303802031CE32F28
:100FC400E42F362EE52F013083120313B6070318DE
:100FD400B70A0030B7073708803AFF0080307F0235
:100FE400031DF62F06303602031CF92FFA2F232E89
:0C0FF4000C2E0C2E0C2E0A128A11002864
:02400E007A1F17
:00000001FF
