:060000000A128A11932F81
:100EF000C034F934A434B034993492348234F834A0
:100F0000803490347E088A007F08820082270A128B
:100F10008A118000840A04087D0603190034FF0A40
:100F20000319FE0A862F83133630FD000730FE00BA
:100F30007830FF002C3084000A128A1186270A12AA
:100F40008A1183010A128A11A52F831603138801BF
:100F5000203084002C30F0000408F1000A30F20048
:100F60007008840083130008F300F00A71088400FD
:100F700073088000F10AF20BB02FBE2F8312031307
:100F8000AA01AB012B08803AFF0080307F02031DCD
:100F9000CB2F0A302A02031CCE2FCF2FD12FBE2FEA
:100FA000BE2F831203132A08203E840083130008F7
:100FB00088001A30F2004530F1007E30F000F00B6E
:100FC000DF2FF10BDF2FF20BDF2F01308312031322
:100FD000AA070318AB0A0030AB072B08803AFF00C2
:100FE00080307F02031DF62F0A302A02031CF92FDE
:100FF000FA2FD12FBE2FBE2FBE2F0A128A11002822
:02400E007A1F17
:00000001FF
