:060000000A128A118E2E87
:100CFA007E088A007F0882007D260A128A118000F7
:100D0A00840A04087D0603190034FF0A0319FE0A3F
:100D1A00812E83135230FD000630FE00A030FF0002
:100D2A003E3084000A128A1181260A128A1183012E
:100D3A000A128A11B42EC0340034F9340034A434AF
:100D4A000034B0340034993400349234003482349C
:100D5A000034F8340034803400349034003483167C
:100D6A00031386018801203084003E30F000040815
:100D7A00F1001430F2007008840083130008F300B5
:100D8A00F00A7108840073088000F10AF20BC02E81
:100D9A00CE2E831203130814881408158815B60179
:100DAA00B7013708803AFF0080307F02031DDF2E2B
:100DBA000A303602031CE22EE32EE52ECE2ECE2E6C
:100DCA0083120313B801B9013908803AFF00803051
:100DDA007F02031DF22E0A303802031CF52EF62E6E
:100DEA00F82EE52FE52F83120313BA01BB013B0846
:100DFA00803AFF0080307F02031D052F0A303A0235
:100E0A00031C082F092F0B2FCF2FCF2F8312031369
:100E1A00BC01BD013D08803AFF0080307F02031DFE
:100E2A00182F0A303C02031C1B2F1C2F1E2FB92F10
:100E3A00B92F83120313B401B5013508803AFF00B4
:100E4A0080307F02031D2B2F32303402031C2E2FD9
:100E5A002F2F312FA32FA32F83120313081414301B
:100E6A00F1007930F000F00B382FF10B382F3D2FBD
:100E7A00831203138810081188113608F0007007CE
:100E8A00203E840083130008860088141430F10081
:100E9A007930F000F00B4F2FF10B4F2F542F8312A4
:100EAA0003130810081188113808F0007007203E53
:100EBA00840083130008860008151430F100793085
:100ECA00F000F00B662FF10B662F6B2F83120313C2
:100EDA008810081088113A08F0007007203E840034
:100EEA0083130008860088151430F1007930F00069
:100EFA00F00B7D2FF10B7D2F822F83120313081025
:100F0A00881008113C08F0007007203E8400831303
:100F1A00000886000130B4070318B50A0030B50787
:100F2A003508803AFF0080307F02031D9E2F323041
:100F3A003402031CA12FA22F312FA32F01308312B9
:100F4A000313BC070318BD0A0030BD073D08803AE9
:100F5A00FF0080307F02031DB42F0A303C02031CBD
:100F6A00B72FB82F1E2FB92F013083120313BA07D8
:100F7A000318BB0A0030BB073B08803AFF008030E9
:100F8A007F02031DCA2F0A303A02031CCD2FCE2F2F
:100F9A000B2FCF2F013083120313B8070318B90A96
:100FAA000030B9073908803AFF0080307F02031DFC
:100FBA00E02F0A303802031CE32FE42FF82EE52F26
:100FCA00013083120313B6070318B70A0030B707B4
:100FDA003708803AFF0080307F02031DF62F0A305F
:100FEA003602031CF92FFA2FE52ECE2ECE2ECE2E48
:060FFA000A128A11002812
:02400E007A1F17
:00000001FF
