:060000000A128A11132F01
:100E04007E088A007F08820002270A128A11800065
:100E1400840A04087D0603190034FF0A0319FE0A34
:100E2400062F83134E30FD000730FE002530FF00EF
:100E34003A3084000A128A1106270A128A118301A1
:100E44000A128A11392FC0340034F9340034A4341E
:100E54000034B03400349934003492340034823491
:100E64000034F83400348034003490340034831671
:100E7400031386018801203084003A30F00004080E
:100E8400F1001430F2007008840083130008F300AA
:100E9400F00A7108840073088000F10AF20B452FF0
:100EA400532F83120313881408158815B601B7014C
:100EB4003708803AFF0080307F02031D632F0A3019
:100EC4003602031C662F672F692F532F532F83126B
:100ED4000313B801B9013908803AFF0080307F025A
:100EE400031D762F0A303802031C792F7A2F7C2FAA
:100EF400E52FE52F83120313B401B5013508803AB9
:100F0400FF0080307F02031D892F32303402031C1E
:100F14008C2F8D2F8F2FCF2FCF2F831203130814D5
:100F24001430F1007930F000F00B962FF10B962F6E
:100F34009B2F8312031388103608F0007007203E9D
:100F4400840083130008860088141430F10079307B
:100F5400F000F00BAB2FF10BAB2FB02F8312031368
:100F640008103808F0007007203E8400831300083E
:100F740086000130B4070318B50A0030B5073508F8
:100F8400803AFF0080307F02031DCA2F32303402C2
:100F9400031CCD2FCE2F8F2FCF2F0130831203139D
:100FA400B8070318B90A0030B9073908803AFF00B6
:100FB40080307F02031DE02F0A303802031CE32F28
:100FC400E42F7C2FE52F013083120313B607031897
:100FD400B70A0030B7073708803AFF0080307F0235
:100FE400031DF62F0A303602031CF92FFA2F692F3E
:0C0FF400532F532F532F0A128A1100288C
:02400E007A1F17
:00000001FF
