:060000000A128A11802E95
:100C8E007E088A007F08820047260A128A11800099
:100C9E00840A04087D0603190034FF0A0319FE0AAC
:100CAE004B2E403400347934003424340034303444
:100CBE0000341934003412340034023400347834E1
:100CCE0000340034003410340034C0340034F934AD
:100CDE000034A4340034B0340034993400349234E7
:100CEE00003482340034F8340034803400349034CC
:100CFE0000348313B430FD000630FE005830FF0080
:100D0E00A03084000A128A114B260A128A1166300C
:100D1E00FD000630FE006C30FF00523084000A12D7
:100D2E008A114B260A128A1183010A128A119F2EEA
:100D3E008316031386018801343084005230F0008C
:100D4E000408F1001430F2007008840083130008C8
:100D5E00F300F00A7108840073088000F10AF20BA8
:100D6E00AB2E20308400A030F0000408F1001430C7
:100D7E00F2007008840083130008F300F00A710873
:100D8E00840073088000F10AF20BC02ECE2E83125F
:100D9E0003130814881408158815CA01CB014B08D3
:100DAE00803AFF0080307F02031DDF2E06304A029C
:100DBE00031CE22EE32EE52ECE2ECE2E831203132F
:100DCE00CC01CD014D08803AFF0080307F02031D1B
:100DDE00F22E0A304C02031CF52EF62EF82EE52FBD
:100DEE00E52F83120313CE01CF014F08803AFF0087
:100DFE0080307F02031D052F06304E02031C082F84
:100E0E00092F0B2FCF2FCF2F83120313D001D10118
:100E1E005108803AFF0080307F02031D182F0A30E0
:100E2E005002031C1B2F1C2F1E2FB92FB92F8312FC
:100E3E000313C801C9014908803AFF0080307F02C0
:100E4E00031D2B2F28304802031C2E2F2F2F312F3E
:100E5E00A32FA32F8312031308142130F100763031
:100E6E00F000F00B382FF10B382F640083120313B0
:100E7E008810081188114A08F0007007343E84006B
:100E8E0083130008860088142130F1007630F000BC
:100E9E00F00B4F2FF10B4F2F64008312031308102A
:100EAE00081188114C08F0007007203E840083134F
:100EBE000008860008152130F1007630F000F00BA6
:100ECE00662FF10B662F640083120313881008102F
:100EDE0088114E08F0007007343E8400831300081A
:100EEE00860088152130F1007630F000F00B7D2F52
:100EFE00F10B7D2F64008312031388100811081064
:100F0E005008F0007007343E8400831300088600FA
:100F1E000130C8070318C90A0030C9074908803ACA
:100F2E00FF0080307F02031D9E2F28304802031CD5
:100F3E00A12FA22F312FA32F013083120313D0071D
:100F4E000318D10A0030D1075108803AFF008030D3
:100F5E007F02031DB42F0A305002031CB72FB82F87
:100F6E001E2FB92F013083120313CE070318CF0A99
:100F7E000030CF074F08803AFF0080307F02031DFC
:100F8E00CA2F06304E02031CCD2FCE2F0B2FCF2F84
:100F9E00013083120313CC070318CD0A0030CD079E
:100FAE004D08803AFF0080307F02031DE02F0A308B
:100FBE004C02031CE32FE42FF82EE52F0130831291
:100FCE000313CA070318CB0A0030CB074B08803A2D
:100FDE00FF0080307F02031DF62F06304A02031CED
:100FEE00F92FFA2FE52ECE2ECE2ECE2E0A128A11E4
:020FFE000028C9
:02400E007A1F17
:00000001FF
