:060000000A128A113D2FD7
:100E58007E088A007F0882002C270A128A118000E7
:100E6800840A04087D0603190034FF0A0319FE0AE0
:100E7800302F83134C30FD000730FE004F30FF0049
:100E8800383084000A128A1130270A128A11830125
:100E98000A128A11632FC0340034F9340034A434A0
:100EA8000034B0340034993400349234003482343D
:100EB8000034F8340034803400349034003483161D
:100EC800031388018601203084003830F0000408BC
:100ED800F1001430F2007008840083130008F30056
:100EE800F00A7108840073088000F10AF20B6F2F72
:100EF8007D2F83120313B401B5013508803AFF0032
:100F080080307F02031D8A2F0A303402031C8D2F84
:100F18008E2F902F7D2F7D2F831203133408F0001E
:100F28007007203E8400831300088600B601B701CD
:100F38003708803AFF0080307F02031DA52F0A3052
:100F48003602031CA82FA92FAB2FD72FD72F831218
:100F580003133608F0007007203E8400831300084E
:100F680088001A30F2004530F1007E30F000F00BB6
:100F7800BB2FF10BBB2FF20BBB2F013083120313D6
:100F8800B6070318B70A0030B7073708803AFF00DA
:100F980080307F02031DD22F0A303602031CD52F62
:100FA800D62FAB2FD72F0D30F200A330F100BD3074
:100FB800F000F00BDD2FF10BDD2FF20BDD2F6400BD
:100FC8008312031386010130B4070318B50A0030F1
:100FD800B5073508803AFF0080307F02031DF62FE1
:100FE8000A303402031CF92FFA2F902F7D2F7D2F02
:080FF8007D2F0A128A11002866
:02400E007A1F17
:00000001FF
