:060000000A128A113A2EDB
:100C740083010A128A113E2E831603138801870109
:100C8400F201F3017308803AFF0081307F02031DF3
:100C94004D2EF4307202031C502E512E532EAD2EC5
:100CA400AD2E02308312031388003C3087000730D6
:100CB400F1007D30F000F00B5D2EF10B5D2E043061
:100CC400831203138800043087000730F1007D305D
:100CD400F000F00B6B2EF10B6B2E08308312031314
:100CE40088003C3087000730F1007D30F000F00BC5
:100CF400792EF10B792E10308312031388002030E3
:100D040087000730F1007D30F000F00B872EF10BE7
:100D1400872E20308312031388003C30870007306D
:100D2400F1007D30F000F00B952EF10B952E013083
:100D3400F2070318F30A0030F3077308803AFF0040
:100D440081307F02031DA82EF4307202031CAB2EE7
:100D5400AC2E532EAD2EF401F5017508803AFF0038
:100D640083307F02031DB82EE8307402031CBB2EAF
:100D7400BC2EBE2E182F182F0230831203138800A6
:100D84001C3087000730F1007D30F000F00BC82ED6
:100D9400F10BC82E0430831203138800243087001B
:100DA4000730F1007D30F000F00BD62EF10BD62E7B
:100DB4000830831203138800243087000730F100C1
:100DC4007D30F000F00BE42EF10BE42E1030831292
:100DD400031388001C3087000730F1007D30F000D9
:100DE400F00BF22EF10BF22E203083120313880045
:100DF400043087000730F1007D30F000F00B002F45
:100E0400F10B002F0130F4070318F50A0030F50741
:100E14007508803AFF0083307F02031D132FE830EA
:100E24007402031C162F172FBE2E182FF601F7017C
:100E34007708803AFF0081307F02031D232FF430AE
:100E44007602031C262F272F292F832F832F02306E
:100E54008312031388003E3087000730F1007D3091
:100E6400F000F00B332FF10B332F043083120313F4
:100E74008800083087000730F1007D30F000F00B67
:100E8400412FF10B412F08308312031388000830DF
:100E940087000730F1007D30F000F00B4F2FF10B8D
:100EA4004F2F103083120313880008308700073057
:100EB400F1007D30F000F00B5D2FF10B5D2F203041
:100EC400831203138800083087000730F1007D3057
:100ED400F000F00B6B2FF10B6B2F0130F6070318AA
:100EE400F70A0030F7077708803AFF0081307F0265
:100EF400031D7E2FF4307602031C812F822F292FAD
:100F0400832FF801F9017908803AFF0081307F02CC
:100F1400031D8E2FF4307802031C912F922F942FEF
:100F2400422E422E023083120313880087010730B9
:100F3400F1007D30F000F00B9D2FF10B9D2F04305C
:100F4400831203138800243087000730F1007D30BA
:100F5400F000F00BAB2FF10BAB2F0830831203130F
:100F64008800243087000730F1007D30F000F00B5A
:100F7400B92FF10BB92F10308312031388003C30C2
:100F840087000730F1007D30F000F00BC72FF10B24
:100F9400C72F2030831203138800243087000730C2
:100FA400F1007D30F000F00BD52FF10BD52F403040
:100FB400831203138800243087000730F1007D304A
:100FC400F000F00BE32FF10BE32F0130F8070318C7
:100FD400F90A0030F9077908803AFF0081307F026E
:100FE400031DF62FF4307802031CF92FFA2F942FE7
:0C0FF400422E422E422E0A128A110028C2
:02400E007A1F17
:00000001FF
