:060000000A128A11A12E74
:100D20007E088A007F08820090260A128A118000BD
:100D3000840A04087D0603190034FF0A0319FE0A19
:100D4000942E83136830FD000630FE00DD30FF0076
:100D5000203084000A128A1194260A128A11830113
:100D60000A128A11252FF401F501B62E701CB92E36
:100D7000BA2EC02E7208F4070318F50A7308F50797
:100D800001300310F20DF30DFF3E031DC12E0130A3
:100D90000310F10CF00CFF3E031DC82E7108700407
:100DA000031DD32ED42EB62ED52E7508F101F107D2
:100DB0007408F001F007DC2E080000346634FF34BC
:100DC000FF347F343E341C34083400341834243467
:100DD0000834103424341834003400341C342434DF
:100DE00024341C340434043400340034FE3410340D
:100DF000103410341034103400340034443444348B
:100E000044347C3444344434003400347C3410346E
:100E10001034103410347C34003400341C34243446
:100E200024341C340C341434243400342434243456
:100E30002434243424341834003400346634FF3429
:100E4000FF347F343E341C34083483160313870187
:100E500088012A2F0130F6000030F70020300A12F6
:100E60008A1189270A128A110130F6000030F70032
:100E700028300A128A1189270A128A110130F600D5
:100E80000030F70030300A128A1189270A128A11BD
:100E90000130F6000030F70038300A128A11892735
:100EA0000A128A110130F6000030F70040300A12B1
:100EB0008A1189270A128A110130F6000030F700E2
:100EC00048300A128A1189270A128A110130F60065
:100ED0000030F70050300A128A1189270A128A114D
:100EE0000130F6000030F70058300A128A118927C5
:100EF0000A128A110130F6000030F70060300A1241
:100F00008A1189270A128A112A2F2A2F0A128A1176
:100F1000002883120313E800E901EA01DF2F83129E
:100F20000313EB01EC016C08803AFF0080307F0274
:100F3000031D9C2F08306B02031C9F2FA02FA22F94
:100F4000D62FD62F0130F800831203136B0AAA2F75
:100F50000310F80DFF3E031DA82F780888006B08CA
:100F60006807F800780884008313000887000730BA
:100F7000F9007D30F800F80BBB2FF90BBB2F831263
:100F8000031387010130EB070318EC0A0030EC076C
:100F90006C08803AFF0080307F02031DD12F08309B
:100FA0006B02031CD42FD52FA22FD62F0130831212
:100FB0000313E9070318EA0A0030EA07DF2F77086E
:100FC000F101F1077608F001F0077830F200003007
:100FD000F3000A128A11B3260A128A11831203132C
:100FE0006A08803AF8007108803A7802031DFA2FE7
:100FF00070086902031CFD2FFE2F8F2FFF2F0800A2
:02400E007A1F17
:00000001FF
